:020000040800F2
:100000000005002045010008B9020008B1020008FF
:10001000B50200088D010008130A00080000000066
:10002000000000000000000000000000590400086B
:100030009101000800000000410300086D05000860
:100040005F0100085F0100085F0100085F01000810
:100050005F0100085F0100085F0100085F01000800
:100060005F0100085F0100085F0100085F010008F0
:100070005F0100085F0100085F0100085F010008E0
:100080005F0100085F0100085F0100085F010008D0
:100090005F0100085F0100085F0100085F010008C0
:1000A0005F0100085F0100085F0100085F010008B0
:1000B000310600085F0100085F0100085F010008C9
:1000C0005F0100085F0100085F0100085F01000890
:1000D0005F0100086D070008F50700085F010008D0
:1000E0005F0100085F0100085F0100085F01000870
:1000F0005F0100085F0100085F0100085F01000860
:100100005F0100085F0100085F0100085F0100084F
:100110005F0100085F0100085F0100085F0100083F
:100120005F0100085F0100085F0100085F0100082F
:10013000DFF80CD000F018F800480047A50A0008C6
:10014000000500200648804706480047FEE7FEE716
:10015000FEE7FEE7FEE7FEE7FEE7FEE7FEE7FEE777
:100160007105000831010008064C074D06E0E06803
:1001700040F0010394E8070098471034AC42F6D3EE
:10018000FFF7DAFF1C0C00083C0C000800BFFEE77C
:1001900070472DE9F041024600250026002000238B
:1001A0000024002791F803C00CF00F0591F803C05C
:1001B0000CF0100CBCF1000F03D091F802C04CEA17
:1001C000050591F800C0BCF1000F31D01468002083
:1001D0002BE04FF0010C0CFA00F3B1F800C00CEA70
:1001E00003069E4220D183004FF00F0C0CFA03F758
:1001F000BC4305FA03FC4CEA040491F803C0BCF1CB
:10020000280F06D14FF0010C0CFA00FCC2F814C004
:100210000AE091F803C0BCF1480F05D14FF0010C82
:100220000CFA00FCC2F810C0401C0828D1D314609E
:10023000B1F800C0BCF1FF0F34DD546800202EE09F
:1002400000F1080C4FF0010808FA0CF3B1F800C0F7
:100250000CEA03069E4221D183004FF00F0C0CFAEA
:1002600003F7BC4305FA03FC4CEA040491F803C00D
:10027000BCF1280F05D100F1080C08FA0CF8C2F8FF
:10028000148091F803C0BCF1480F07D100F1080CAD
:100290004FF0010808FA0CF8C2F81080401C08283A
:1002A000CED35460BDE8F081416170470161704771
:1002B00000BFFEE700BFFEE77047000070B50021F9
:1002C00000230F22C47804B3154C246804F4E064BE
:1002D000C4F5E064210AC1F10403CA40447804FA79
:1002E00003F184781440214309010E4C0678A1558E
:1002F000047804F01F050124AC4005786D11AD00B1
:1003000005F1E025C5F8004109E0047804F01F0577
:100310000124AC40044D0678761145F8264070BDA6
:100320000CED00E000E400E080E100E00249014360
:10033000024A1160704700000000FA050CED00E071
:100340007047000029B1064AD2690243044BDA61C2
:1003500004E0034AD2698243014BDA61704700002E
:100360000010024029B1064A92690243044B9A6187
:1003700004E0034A92698243014B9A61704700008E
:100380000010024030B500210022002400232D4D32
:100390006D6805F00C0121B1042905D0082923D18D
:1003A00005E0294D056022E0274D05601FE0254D41
:1003B0006D6805F47012234D6D6805F480340225D4
:1003C00005EB92421CB9214D554305600BE01D4DD4
:1003D0006D6805F400351DB11C4D5543056002E004
:1003E000194D5543056002E0174D056000BF00BF81
:1003F000144D6D6805F0F0010909154D6B5C056839
:10040000DD4045600F4D6D6805F4E061090A104D4F
:100410006B5C4568DD4085600A4D6D6805F4605190
:10042000C90A0B4D6B5C4568DD40C560054D6D68C4
:1004300005F44041890B074D6B5CC568B5FBF3F5CE
:10044000056130BD0010024000127A0000093D0035
:100450000000002010000020704710B500F002F8E6
:1004600010BD00000CB500200190009033480068DA
:1004700040F480303149086000BF3048006800F423
:10048000003000900198401C0190009818B9019824
:10049000B0F5A06FF1D12948006800F4003010B128
:1004A0000120009001E0002000900098012843D135
:1004B0002348006840F010002149086008460068A1
:1004C00020F0030008600846006840F00200086061
:1004D0001A4840681949486008464068486008461C
:1004E000406840F4806048600846406820F47C1012
:1004F00048600846406840F4E810486008460068D4
:1005000040F08070086000BF0C48006800F0007088
:100510000028F9D00948406820F0030007494860E6
:100520000846406840F00200486000BF0348406849
:1005300000F00C000828F9D10CBD000000100240AA
:1005400000200240042808D14FF0E021096941F061
:1005500004014FF0E022116107E04FF0E02109694A
:1005600021F004014FF0E022116170477047000054
:1005700010B51348006840F00100114908600846B2
:100580004068104908400E494860084600680E4916
:1005900008400B4908600846006820F48020086085
:1005A0000846406820F4FE0048604FF41F00886051
:1005B000FFF753FF4FF000600449086010BD0000D2
:1005C000001002400000FFF8FFFFF6FE08ED00E01B
:1005D0007FB505460C4601210846FFF7B3FE681EAD
:1005E00080B2ADF80400601E80B2ADF800000020BB
:1005F000ADF80600ADF8020069464FF0804000F00B
:1006000063F81C208DF80C0001208DF80D008DF88A
:100610000E008DF80F0003A8FFF750FE0121880798
:1006200000F02BF801221146900700F043F87FBD3F
:1006300010B50121880700F02CF850B10B48007864
:10064000401C0A49087008460078032801DD002094
:1006500008700121880700F00DF81C20012181405D
:10066000034A430942F8231000BF10BD1E000020BA
:1006700080E200E0CA430282704721B1028842F062
:100680000102028004E002884FF6FE731A400280E5
:10069000704730B50246002000230024158A05EA81
:1006A0000103958905EA010413B10CB1012000E0B2
:1006B000002030BD1AB183890B43838102E0838916
:1006C0008B43838170470000002202881D4B9842B3
:1006D0000ED01D4B98420BD0B0F1804F08D01B4B71
:1006E000984205D01A4B984202D01A4B984204D136
:1006F0004FF68F731A404B881A43174B984207D016
:10070000164B984204D04FF6FF431A40CB881A4349
:1007100002808B8883850B8803850A4B98420BD017
:10072000094B984208D00E4B984205D00D4B984289
:1007300002D00D4B984201D10B7A038601238382AC
:1007400070470000002C01400034014000040040CC
:1007500000080040000C0040001000400014004061
:1007600000400140004401400048014010B540F203
:1007700025511D4800F08DF810B31B4800F044F9D6
:10078000C4B21A48008800F40040C8B9174800886D
:1007900000F4804060B10A2C03D000201349088087
:1007A00020E01248008840F400401049088019E019
:1007B0000D2C06D10D48008840F480400B4908807C
:1007C00010E00A480088C0F30D0009490C5407489E
:1007D0000088401C0549088008460088C72801DDBC
:1007E0000020088010BD0000003801401C000020DF
:1007F0003400002010B540F22551164800F049F8A9
:10080000C0B1144800F000F900F0010030B94FF415
:10081000E15142F21070FFF7DBFE0BE00D4800F0F3
:10082000F3F800F0010028B14FF4E15144F62060E4
:10083000FFF7CEFE40F22551064800F00FF82620C3
:1008400000F01F0201219140034A430942F823109E
:1008500000BF10BD0044004080E200E010B500225F
:10086000002340F66A14A14200D100BF0A120124FD
:100870009440A3B2DC43048010BD21B1828942F4CC
:100880000052828104E082894DF6FF731A40828112
:10089000704770B50246002400230025002040F672
:1008A0006A16B14200D100BFC1F3421501F01F0327
:1008B000012606FA03F3012D02D19689334006E0A2
:1008C000022D02D1168A334001E0968A33400C1281
:1008D000012606FA04F41688344013B10CB1012045
:1008E00000E0002070BDF0B503460024002600257E
:1008F000002040F66A17B94200D100BF1846C1F384
:10090000421401F01F06012707FA06F5012C01D158
:100910000C3004E0022C01D1103000E014301AB188
:1009200007682F43076002E00768AF430760F0BD28
:100930002DE9F04786B005460E460024A24600BFCA
:10094000A1460027B08900B100BF2F462C8A4CF683
:10095000FF700440F08804432C82AC894EF6F310FB
:100960000440B08831890843718908430443AC814D
:10097000AC8A4FF6FF400440B0890443AC8201A822
:10098000FFF700FD1F48874202D1DDF810A001E00B
:10099000DDF80CA0A88900F4004040B10AEBCA00C1
:1009A00000EB0A1031684900B0FBF1F807E00AEBF0
:1009B000CA0000EB0A1031688900B0FBF1F864202E
:1009C000B8FBF0F004012009642101FB1089A8891B
:1009D00000F4004040B1322000EBC900B0FBF1F060
:1009E00000F00700044308E0322000EB0910642106
:1009F000B0FBF1F000F00F0004432C8106B0BDE81D
:100A0000F08700000038014001468888C0F30800E4
:100A1000704700BFFEE702E008C8121F08C1002AA5
:100A2000FAD170477047002001E001C1121F002A6F
:100A3000FBD1704710B56FF00400FFF783FD0A4843
:100A400000680A49B0FBF1F00949087008460078CF
:100A500000EB4001C1EBC0104FF6FF7101EAC0008E
:100A60000449088010BD00002000002000127A0018
:100A7000140000201600002008B501211020FFF707
:100A800071FC0F20ADF8000010208DF8030003204A
:100A90008DF8020069460248FFF77BFB08BD0000A5
:100AA000001001404FF4A060FFF740FCFFF7C2FFC9
:100AB000FFF7E2FF4FF4E13000F05EF84FF4E15150
:100AC00042F21070FFF784FD51E02948007880B9A8
:100AD00001212848FFF7E8FB02212648FFF7E6FB43
:100AE00004212448FFF7E2FB08212248FFF7DEFB40
:100AF0003DE01F480078012810D101211D48FFF773
:100B0000D5FB02211B48FFF7CFFB04211948FFF753
:100B1000CDFB08211748FFF7C9FB28E014480078EF
:100B2000022810D101211348FFF7C0FB0221114810
:100B3000FFF7BCFB04210F48FFF7B6FB08210D4867
:100B4000FFF7B4FB13E00A48007803280FD1012116
:100B50000848FFF7ABFB02210648FFF7A7FB04217B
:100B60000448FFF7A3FB08210248FFF79DFBACE711
:100B70001E0000200010014010B586B0044601217F
:100B80000420FFF7EFFB01214804FFF7DBFB042003
:100B9000ADF8140003208DF8160018208DF817000A
:100BA00005A91C48FFF7F5FA0820ADF81400042049
:100BB0008DF8170005A91748FFF7EBFA26208DF8E6
:100BC000000002208DF8010003208DF802000120B2
:100BD0008DF803006846FFF771FB01940020ADF823
:100BE0000800ADF80A00ADF80C00ADF810000C20BC
:100BF000ADF80E0001A90848FFF79AFE012240F265
:100C000025510548FFF76FFE01210348FFF735FE28
:100C100006B010BD00080140004400403C0C000834
:100C20000000002034000000160A0008700C0008C4
:100C300034000020CC040000260A00080000000058
:100C4000010203040102030406070809020406085E
:100C500000000000000000000000000000A24A04A4
:100C6000000000000000000001020304060708095C
:0400000508000131BD
:00000001FF
