:020000040800F2
:1000000000050020450100089104000817040008BD
:100010008D0400088D010008D309000800000000CD
:100020000000000000000000000000003106000891
:1000300091010008000000001905000845070008AC
:100040005F0100085F0100085F0100085F01000810
:100050005F0100085F0100085F0100085F01000800
:10006000950100085F0100085F0100085F010008BA
:100070005F0100085F0100085F0100085F010008E0
:100080005F0100085F0100085F0100085F010008D0
:100090005F0100085F0100085F0100085F010008C0
:1000A0005F0100085F0100085F0100085F010008B0
:1000B0005F0100085F0100085F0100085F010008A0
:1000C0005F0100085F0100085F0100085F01000890
:1000D0005F010008A90700085F0100085F01000830
:1000E0005F0100085F0100085F0100085F01000870
:1000F0005F0100085F0100085F0100085F01000860
:100100005F0100085F0100085F0100085F0100084F
:100110005F0100085F0100085F0100085F0100083F
:100120005F0100085F0100085F0100085F0100082F
:10013000DFF80CD000F018F800480047390A000832
:10014000000500200648804706480047FEE7FEE716
:10015000FEE7FEE7FEE7FEE7FEE7FEE7FEE7FEE777
:100160004907000831010008064C074D06E0E06829
:1001700040F0010394E8070098471034AC42F6D3EE
:10018000FFF7DAFFF80A0008180B000800BFFEE7C7
:100190007047000010B5042000F034F8D0B11348C7
:1001A000007808B9012000E00020104908700846D6
:1001B000007800F0010020B900210D4800F005FC96
:1001C00008E00A48007800F0010018B10121084851
:1001D00000F0FBFB042000F00FF808200121814013
:1001E000044A430942F8231000BF10BD3400002028
:1001F0000044004080E200E00149086070470000D0
:1002000014040140014600200022074B1B6803EA4A
:100210000102054B14331B680B4013B10AB10120D6
:1002200000E0002070470000000401400021234945
:100230008279002A3AD00A46126803689A430B462C
:100240001A600A1D126803689A430B1D1A6002792E
:1002500011440A6803681A430A60184A083212688F
:1002600003689A43154B08331A601A1D1268036815
:100270009A43124B0C331A604279102A0ED11A1F7E
:10028000126803681A430D4B08331A601A1D12686E
:1002900003681A43094B0C331A600DE00749427991
:1002A00011440A6803681A430A6005E002791144A0
:1002B0000A6803689A430A6070470000000401401E
:1002C00030B500228B071C0F0F2303FA04F20B4BEF
:1002D0008C1053F824309343084C8D1044F825308B
:1002E00023468C1053F824308C07240F00FA04F4B2
:1002F0002343024C8D1044F8253030BD08000140E6
:100300002DE9F041024600250026002000230024AC
:10031000002791F803C00CF00F0591F803C00CF012
:10032000100CBCF1000F03D091F802C04CEA050597
:1003300091F800C0BCF1000F31D0146800202BE010
:100340004FF0010C0CFA00F3B1F800C00CEA030600
:100350009E4220D183004FF00F0C0CFA03F7BC43F0
:1003600005FA03FC4CEA040491F803C0BCF1280F21
:1003700006D14FF0010C0CFA00FCC2F814C00AE0E0
:1003800091F803C0BCF1480F05D14FF0010C0CFAF5
:1003900000FCC2F810C0401C0828D1D31460B1F88A
:1003A00000C0BCF1FF0F34DD546800202EE000F1E6
:1003B000080C4FF0010808FA0CF3B1F800C00CEA81
:1003C00003069E4221D183004FF00F0C0CFA03F775
:1003D000BC4305FA03FC4CEA040491F803C0BCF1E9
:1003E000280F05D100F1080C08FA0CF8C2F81480A7
:1003F00091F803C0BCF1480F07D100F1080C4FF091
:10040000010808FA0CF8C2F81080401C0828CED366
:100410005460BDE8F08100BFFEE700001FB5012178
:10042000402000F08BF80121084600F087F84820B2
:100430008DF80F000420ADF80C0003208DF80E009D
:1004400003A91148FFF75CFF02210420FFF738FFE2
:1004500008208DF8080001208DF809008DF80A00A9
:100460008DF80B0002A800F015F804200090002081
:100470008DF804000C208DF8050001208DF8060091
:100480006846FFF7D3FE1FBD0018014000BFFEE71E
:100490007047000070B5002100230F22C47804B318
:1004A000154C246804F4E064C4F5E064210AC1F149
:1004B0000403CA40447804FA03F1847814402143C9
:1004C00009010E4C0678A155047804F01F0501249B
:1004D000AC4005786D11AD0005F1E025C5F800418F
:1004E00009E0047804F01F050124AC40044D0678AF
:1004F000761145F8264070BD0CED00E000E400E008
:1005000080E100E002490143024A116070470000A7
:100510000000FA050CED00E07047000029B1064A22
:10052000D2690243044BDA6104E0034AD269824390
:10053000014BDA61704700000010024029B1064A01
:1005400092690243044B9A6104E0034A9269824330
:10055000014B9A61704700000010024030B5002145
:100560000022002400232D4D6D6805F00C0121B1FF
:10057000042905D0082923D105E0294D056022E092
:10058000274D05601FE0254D6D6805F47012234D61
:100590006D6805F48034022505EB92421CB9214DAB
:1005A000554305600BE01D4D6D6805F400351DB128
:1005B0001C4D5543056002E0194D5543056002E0AE
:1005C000174D056000BF00BF144D6D6805F0F001C8
:1005D0000909154D6B5C0568DD4045600F4D6D6880
:1005E00005F4E061090A104D6B5C4568DD408560EB
:1005F0000A4D6D6805F46051C90A0B4D6B5C456886
:10060000DD40C560054D6D6805F44041890B074D1F
:100610006B5CC568B5FBF3F5056130BD00100240A9
:1006200000127A0000093D000000002010000020A8
:10063000704710B500F002F810BD00000CB50020A6
:10064000019000903348006840F4803031490860E0
:1006500000BF3048006800F4003000900198401C52
:100660000190009818B90198B0F5A06FF1D1294810
:10067000006800F4003010B10120009001E000207B
:1006800000900098012843D12348006840F01000F2
:10069000214908600846006820F003000860084609
:1006A000006840F0020008601A4840681949486034
:1006B0000846406848600846406840F480604860EA
:1006C0000846406820F47C1048600846406840F4C2
:1006D000E81048600846006840F08070086000BF7D
:1006E0000C48006800F000700028F9D00948406804
:1006F00020F00300074948600846406840F00200C7
:10070000486000BF0348406800F00C000828F9D199
:100710000CBD00000010024000200240042808D157
:100720004FF0E021096941F004014FF0E02211612E
:1007300007E04FF0E021096921F004014FF0E022C9
:10074000116170477047000010B51348006840F011
:1007500001001149086008464068104908400E49E8
:100760004860084600680E4908400B490860084682
:10077000006820F4802008600846406820F4FE00ED
:1007800048604FF41F008860FFF753FF4FF0006090
:100790000449086010BD0000001002400000FFF88E
:1007A000FFFFF6FE08ED00E010B540F225511D48B0
:1007B00000F04AF810B31B4800F002F9C4B21A481E
:1007C000008800F40040C8B91748008800F4804051
:1007D00060B10A2C03D000201349088020E01248A1
:1007E000008840F400401049088019E00D2C06D123
:1007F0000D48008840F480400B49088010E00A480A
:100800000088C0F30D0009490C5407480088401CBB
:100810000549088008460088C72801DD00200880B7
:1008200010BD0000003801401C00002038000020EE
:1008300021B1828942F40052828104E082894DF61E
:10084000FF731A408281704770B50246002400236E
:100850000025002040F66A16B14200D100BFC1F366
:10086000421501F01F03012606FA03F3012D02D100
:100870009689334006E0022D02D1168A334001E00A
:10088000968A33400C12012606FA04F41688344086
:1008900013B10CB1012000E0002070BDF0B503469B
:1008A000002400260025002040F66A17B94200D136
:1008B00000BF1846C1F3421401F01F06012707FAD2
:1008C00006F5012C01D10C3004E0022C01D11030CE
:1008D00000E014301AB107682F43076002E0076890
:1008E000AF430760F0BD00002DE9F04786B0054634
:1008F0000E460024A24600BFA1460027B08900B1E1
:1009000000BF2F462C8A4CF6FF700440F088044349
:100910002C82AC894EF6F3100440B088318908432C
:10092000718908430443AC81AC8A4FF6FF40044010
:10093000B0890443AC8201A8FFF710FE1F4887422C
:1009400002D1DDF810A001E0DDF80CA0A88900F4C8
:10095000004040B10AEBCA0000EB0A1031684900C0
:10096000B0FBF1F807E00AEBCA0000EB0A103168AF
:100970008900B0FBF1F86420B8FBF0F00401200915
:10098000642101FB1089A88900F4004040B13220A5
:1009900000EBC900B0FBF1F000F00700044308E0F1
:1009A000322000EB09106421B0FBF1F000F00F00E1
:1009B00004432C8106B0BDE8F087000000380140F8
:1009C00001468888C0F308007047C1F3080282809E
:1009D000704700BFFEE702E008C8121F08C1002AE6
:1009E000FAD170477047002001E001C1121F002AB0
:1009F000FBD1704710B56FF00400FFF78FFE0A4877
:100A000000680A49B0FBF1F009490870084600780F
:100A100000EB4001C1EBC0104FF6FF7101EAC000CE
:100A20000449088010BD00002000002000127A0058
:100A300014000020160000204FF4A060FFF762FDB4
:100A4000FFF7ECFCFFF7D6FF4FF4E13000F002F8BF
:100A500000BFFEE710B586B0044601210420FFF771
:100A60006DFD01214804FFF759FD0420ADF8140085
:100A700003208DF8160018208DF8170005A91C48D2
:100A8000FFF73EFC0820ADF8140004208DF8170095
:100A900005A91748FFF734FC26208DF80000022036
:100AA0008DF8010003208DF8020001208DF803006D
:100AB0006846FFF7EFFC01940020ADF80800ADF8A0
:100AC0000A00ADF80C00ADF810000C20ADF80E00D7
:100AD00001A90848FFF708FF012240F22551054807
:100AE000FFF7DCFE01210348FFF7A2FE06B010BDB0
:100AF0000008014000440040180B000800000020DE
:100B000038000000D6090008500B0008380000200B
:100B1000C8040000E6090008000000000102030408
:100B20000102030406070809020406080000000089
:100B3000000000000000000000A24A0400000000C5
:100B4000000000000102030406070809000000007D
:0400000508000131BD
:00000001FF
